{
  "_format": "hh-sol-artifact-1",
  "contractName": "Multisig",
  "sourceName": "contracts/Multisig.sol",
  "abi": [
    {
      "inputs": [
        {
          "internalType": "uint8",
          "name": "_quorum",
          "type": "uint8"
        },
        {
          "internalType": "address[]",
          "name": "_validSigners",
          "type": "address[]"
        }
      ],
      "stateMutability": "nonpayable",
      "type": "constructor"
    },
    {
      "inputs": [
        {
          "internalType": "uint8",
          "name": "_txId",
          "type": "uint8"
        }
      ],
      "name": "approveTx",
      "outputs": [],
      "stateMutability": "nonpayable",
      "type": "function"
    },
    {
      "inputs": [
        {
          "internalType": "uint256",
          "name": "_updateTxId",
          "type": "uint256"
        }
      ],
      "name": "approveUpdate",
      "outputs": [],
      "stateMutability": "nonpayable",
      "type": "function"
    },
    {
      "inputs": [
        {
          "internalType": "uint256",
          "name": "",
          "type": "uint256"
        },
        {
          "internalType": "address",
          "name": "",
          "type": "address"
        }
      ],
      "name": "hasApprovedUpdate",
      "outputs": [
        {
          "internalType": "bool",
          "name": "",
          "type": "bool"
        }
      ],
      "stateMutability": "view",
      "type": "function"
    },
    {
      "inputs": [
        {
          "internalType": "address",
          "name": "",
          "type": "address"
        },
        {
          "internalType": "uint256",
          "name": "",
          "type": "uint256"
        }
      ],
      "name": "hasSigned",
      "outputs": [
        {
          "internalType": "bool",
          "name": "",
          "type": "bool"
        }
      ],
      "stateMutability": "view",
      "type": "function"
    },
    {
      "inputs": [
        {
          "internalType": "address",
          "name": "",
          "type": "address"
        }
      ],
      "name": "isValidSigner",
      "outputs": [
        {
          "internalType": "bool",
          "name": "",
          "type": "bool"
        }
      ],
      "stateMutability": "view",
      "type": "function"
    },
    {
      "inputs": [],
      "name": "newQuorum",
      "outputs": [
        {
          "internalType": "uint8",
          "name": "",
          "type": "uint8"
        }
      ],
      "stateMutability": "view",
      "type": "function"
    },
    {
      "inputs": [
        {
          "internalType": "uint256",
          "name": "",
          "type": "uint256"
        }
      ],
      "name": "newValidSigners",
      "outputs": [
        {
          "internalType": "address",
          "name": "",
          "type": "address"
        }
      ],
      "stateMutability": "view",
      "type": "function"
    },
    {
      "inputs": [],
      "name": "noOfValidSigners",
      "outputs": [
        {
          "internalType": "uint8",
          "name": "",
          "type": "uint8"
        }
      ],
      "stateMutability": "view",
      "type": "function"
    },
    {
      "inputs": [],
      "name": "quorum",
      "outputs": [
        {
          "internalType": "uint8",
          "name": "",
          "type": "uint8"
        }
      ],
      "stateMutability": "view",
      "type": "function"
    },
    {
      "inputs": [
        {
          "internalType": "uint256",
          "name": "",
          "type": "uint256"
        }
      ],
      "name": "transactions",
      "outputs": [
        {
          "internalType": "uint256",
          "name": "id",
          "type": "uint256"
        },
        {
          "internalType": "uint256",
          "name": "amount",
          "type": "uint256"
        },
        {
          "internalType": "address",
          "name": "sender",
          "type": "address"
        },
        {
          "internalType": "address",
          "name": "recipient",
          "type": "address"
        },
        {
          "internalType": "bool",
          "name": "isCompleted",
          "type": "bool"
        },
        {
          "internalType": "uint256",
          "name": "timestamp",
          "type": "uint256"
        },
        {
          "internalType": "uint256",
          "name": "noOfApproval",
          "type": "uint256"
        },
        {
          "internalType": "address",
          "name": "tokenAddress",
          "type": "address"
        }
      ],
      "stateMutability": "view",
      "type": "function"
    },
    {
      "inputs": [
        {
          "internalType": "uint256",
          "name": "_amount",
          "type": "uint256"
        },
        {
          "internalType": "address",
          "name": "_recipient",
          "type": "address"
        },
        {
          "internalType": "address",
          "name": "_tokenAddress",
          "type": "address"
        }
      ],
      "name": "transfer",
      "outputs": [],
      "stateMutability": "nonpayable",
      "type": "function"
    },
    {
      "inputs": [],
      "name": "txCount",
      "outputs": [
        {
          "internalType": "uint256",
          "name": "",
          "type": "uint256"
        }
      ],
      "stateMutability": "view",
      "type": "function"
    },
    {
      "inputs": [
        {
          "internalType": "uint8",
          "name": "_newQuorum",
          "type": "uint8"
        },
        {
          "internalType": "address[]",
          "name": "_newValidSigners",
          "type": "address[]"
        }
      ],
      "name": "updateQuorum",
      "outputs": [],
      "stateMutability": "nonpayable",
      "type": "function"
    },
    {
      "inputs": [],
      "name": "updateQuorumTxId",
      "outputs": [
        {
          "internalType": "uint256",
          "name": "",
          "type": "uint256"
        }
      ],
      "stateMutability": "view",
      "type": "function"
    }
  ],
  "bytecode": "0x60806040523480156200001157600080fd5b5060405162002bd138038062002bd183398181016040528101906200003791906200063d565b60018151116200007e576040517f08c379a0000000000000000000000000000000000000000000000000000000008152600401620000759062000704565b60405180910390fd5b60018260ff1611620000c7576040517f08c379a0000000000000000000000000000000000000000000000000000000008152600401620000be9062000776565b60405180910390fd5b60005b81518110156200029357600073ffffffffffffffffffffffffffffffffffffffff1682828151811062000102576200010162000798565b5b602002602001015173ffffffffffffffffffffffffffffffffffffffff160362000163576040517f08c379a00000000000000000000000000000000000000000000000000000000081526004016200015a9062000817565b60405180910390fd5b600260008383815181106200017d576200017c62000798565b5b602002602001015173ffffffffffffffffffffffffffffffffffffffff1673ffffffffffffffffffffffffffffffffffffffff16815260200190815260200160002060009054906101000a900460ff161562000210576040517f08c379a0000000000000000000000000000000000000000000000000000000008152600401620002079062000889565b60405180910390fd5b6001600260008484815181106200022c576200022b62000798565b5b602002602001015173ffffffffffffffffffffffffffffffffffffffff1673ffffffffffffffffffffffffffffffffffffffff16815260200190815260200160002060006101000a81548160ff0219169083151502179055508080600101915050620000ca565b508051600060016101000a81548160ff021916908360ff160217905550600260003373ffffffffffffffffffffffffffffffffffffffff1673ffffffffffffffffffffffffffffffffffffffff16815260200190815260200160002060009054906101000a900460ff1662000394576001600260003373ffffffffffffffffffffffffffffffffffffffff1673ffffffffffffffffffffffffffffffffffffffff16815260200190815260200160002060006101000a81548160ff0219169083151502179055506001600060018282829054906101000a900460ff166200037b9190620008da565b92506101000a81548160ff021916908360ff1602179055505b600060019054906101000a900460ff1660ff168260ff161115620003ef576040517f08c379a0000000000000000000000000000000000000000000000000000000008152600401620003e6906200098c565b60405180910390fd5b816000806101000a81548160ff021916908360ff1602179055505050620009ae565b6000604051905090565b600080fd5b600080fd5b600060ff82169050919050565b6200043d8162000425565b81146200044957600080fd5b50565b6000815190506200045d8162000432565b92915050565b600080fd5b6000601f19601f8301169050919050565b7f4e487b7100000000000000000000000000000000000000000000000000000000600052604160045260246000fd5b620004b38262000468565b810181811067ffffffffffffffff82111715620004d557620004d462000479565b5b80604052505050565b6000620004ea62000411565b9050620004f88282620004a8565b919050565b600067ffffffffffffffff8211156200051b576200051a62000479565b5b602082029050602081019050919050565b600080fd5b600073ffffffffffffffffffffffffffffffffffffffff82169050919050565b60006200055e8262000531565b9050919050565b620005708162000551565b81146200057c57600080fd5b50565b600081519050620005908162000565565b92915050565b6000620005ad620005a784620004fd565b620004de565b90508083825260208201905060208402830185811115620005d357620005d26200052c565b5b835b81811015620006005780620005eb88826200057f565b845260208401935050602081019050620005d5565b5050509392505050565b600082601f83011262000622576200062162000463565b5b81516200063484826020860162000596565b91505092915050565b600080604083850312156200065757620006566200041b565b5b600062000667858286016200044c565b925050602083015167ffffffffffffffff8111156200068b576200068a62000420565b5b62000699858286016200060a565b9150509250929050565b600082825260208201905092915050565b7f6665772076616c6964207369676e657273000000000000000000000000000000600082015250565b6000620006ec601183620006a3565b9150620006f982620006b4565b602082019050919050565b600060208201905081810360008301526200071f81620006dd565b9050919050565b7f71756f72756d20697320746f6f20736d616c6c00000000000000000000000000600082015250565b60006200075e601383620006a3565b91506200076b8262000726565b602082019050919050565b6000602082019050818103600083015262000791816200074f565b9050919050565b7f4e487b7100000000000000000000000000000000000000000000000000000000600052603260045260246000fd5b7f7a65726f2061646472657373206e6f7420616c6c6f7765640000000000000000600082015250565b6000620007ff601883620006a3565b91506200080c82620007c7565b602082019050919050565b600060208201905081810360008301526200083281620007f0565b9050919050565b7f7369676e657220616c7265616479206578697374000000000000000000000000600082015250565b600062000871601483620006a3565b91506200087e8262000839565b602082019050919050565b60006020820190508181036000830152620008a48162000862565b9050919050565b7f4e487b7100000000000000000000000000000000000000000000000000000000600052601160045260246000fd5b6000620008e78262000425565b9150620008f48362000425565b9250828201905060ff81111562000910576200090f620008ab565b5b92915050565b7f71756f72756d2067726561746572207468616e2076616c6964207369676e657260008201527f7300000000000000000000000000000000000000000000000000000000000000602082015250565b600062000974602183620006a3565b9150620009818262000916565b604082019050919050565b60006020820190508181036000830152620009a78162000965565b9050919050565b61221380620009be6000396000f3fe608060405234801561001057600080fd5b50600436106100ea5760003560e01c8063866e912e1161008c578063c343efa611610066578063c343efa614610252578063ccb570e314610282578063d5f505821461029e578063f0f0082a146102ce576100ea565b8063866e912e146101cd5780638de97088146101fd5780639ace38c21461021b576100ea565b80632f430e17116100c85780632f430e17146101475780633c540687146101635780633fe41177146101815780635952dd901461019d576100ea565b80630f55cb1e146100ef5780631703a0181461010b57806317eff51b14610129575b600080fd5b6101096004803603810190610104919061155b565b6102ec565b005b6101136106b1565b60405161012091906115a4565b60405180910390f35b6101316106c2565b60405161013e91906115a4565b60405180910390f35b610161600480360381019061015c91906115eb565b6106d5565b005b61016b610be4565b6040516101789190611627565b60405180910390f35b61019b600480360381019061019691906117f9565b610bea565b005b6101b760048036038101906101b29190611855565b610df0565b6040516101c491906118b0565b60405180910390f35b6101e760048036038101906101e2919061155b565b610e1f565b6040516101f491906118da565b60405180910390f35b610205610e5e565b6040516102129190611627565b60405180910390f35b6102356004803603810190610230919061155b565b610e64565b6040516102499897969594939291906118f5565b60405180910390f35b61026c60048036038101906102679190611973565b610f19565b60405161027991906118b0565b60405180910390f35b61029c600480360381019061029791906119b3565b610f48565b005b6102b860048036038101906102b39190611a06565b611437565b6040516102c591906118b0565b60405180910390f35b6102d6611457565b6040516102e391906115a4565b60405180910390f35b600260003373ffffffffffffffffffffffffffffffffffffffff1673ffffffffffffffffffffffffffffffffffffffff16815260200190815260200160002060009054906101000a900460ff16610378576040517f08c379a000000000000000000000000000000000000000000000000000000000815260040161036f90611a90565b60405180910390fd5b60055481146103bc576040517f08c379a00000000000000000000000000000000000000000000000000000000081526004016103b390611afc565b60405180910390fd5b6008600082815260200190815260200160002060003373ffffffffffffffffffffffffffffffffffffffff1673ffffffffffffffffffffffffffffffffffffffff16815260200190815260200160002060009054906101000a900460ff161561045a576040517f08c379a000000000000000000000000000000000000000000000000000000000815260040161045190611b68565b60405180910390fd5b60016008600083815260200190815260200160002060003373ffffffffffffffffffffffffffffffffffffffff1673ffffffffffffffffffffffffffffffffffffffff16815260200190815260200160002060006101000a81548160ff0219169083151502179055506000805b60078054905081101561059257600860008481526020019081526020016000206000600783815481106104fd576104fc611b88565b5b9060005260206000200160009054906101000a900473ffffffffffffffffffffffffffffffffffffffff1673ffffffffffffffffffffffffffffffffffffffff1673ffffffffffffffffffffffffffffffffffffffff16815260200190815260200160002060009054906101000a900460ff1615610585576001826105829190611be6565b91505b80806001019150506104c7565b50600660009054906101000a900460ff1660ff168160ff16106106ad57600660009054906101000a900460ff166000806101000a81548160ff021916908360ff160217905550600780549050600060016101000a81548160ff021916908360ff16021790555060005b6007805490508110156106ab576001600260006007848154811061062257610621611b88565b5b9060005260206000200160009054906101000a900473ffffffffffffffffffffffffffffffffffffffff1673ffffffffffffffffffffffffffffffffffffffff1673ffffffffffffffffffffffffffffffffffffffff16815260200190815260200160002060006101000a81548160ff02191690831515021790555080806001019150506105fb565b505b5050565b60008054906101000a900460ff1681565b600060019054906101000a900460ff1681565b6000600360008360ff16815260200190815260200160002090506000816000015403610736576040517f08c379a000000000000000000000000000000000000000000000000000000000815260040161072d90611c67565b60405180910390fd5b80600101548160060160009054906101000a900473ffffffffffffffffffffffffffffffffffffffff1673ffffffffffffffffffffffffffffffffffffffff166370a08231306040518263ffffffff1660e01b815260040161079891906118da565b602060405180830381865afa1580156107b5573d6000803e3d6000fd5b505050506040513d601f19601f820116820180604052508101906107d99190611c9c565b101561081a576040517f08c379a000000000000000000000000000000000000000000000000000000000815260040161081190611d15565b60405180910390fd5b8060030160149054906101000a900460ff161561086c576040517f08c379a000000000000000000000000000000000000000000000000000000000815260040161086390611d81565b60405180910390fd5b60008054906101000a900460ff1660ff168160050154106108c2576040517f08c379a00000000000000000000000000000000000000000000000000000000081526004016108b990611ded565b60405180910390fd5b600260003373ffffffffffffffffffffffffffffffffffffffff1673ffffffffffffffffffffffffffffffffffffffff16815260200190815260200160002060009054906101000a900460ff1661094e576040517f08c379a000000000000000000000000000000000000000000000000000000000815260040161094590611e59565b60405180910390fd5b600460003373ffffffffffffffffffffffffffffffffffffffff1673ffffffffffffffffffffffffffffffffffffffff16815260200190815260200160002060008360ff16815260200190815260200160002060009054906101000a900460ff16156109ef576040517f08c379a00000000000000000000000000000000000000000000000000000000081526004016109e690611ec5565b60405180910390fd5b6001600460003373ffffffffffffffffffffffffffffffffffffffff1673ffffffffffffffffffffffffffffffffffffffff16815260200190815260200160002060008460ff16815260200190815260200160002060006101000a81548160ff0219169083151502179055506001816005016000828254610a709190611ee5565b9250508190555080600701339080600181540180825580915050600190039060005260206000200160009091909190916101000a81548173ffffffffffffffffffffffffffffffffffffffff021916908373ffffffffffffffffffffffffffffffffffffffff16021790555060008054906101000a900460ff1660ff16816005015403610be05760018160030160146101000a81548160ff0219169083151502179055508060060160009054906101000a900473ffffffffffffffffffffffffffffffffffffffff1673ffffffffffffffffffffffffffffffffffffffff1663a9059cbb8260030160009054906101000a900473ffffffffffffffffffffffffffffffffffffffff1683600101546040518363ffffffff1660e01b8152600401610b9b929190611f19565b6020604051808303816000875af1158015610bba573d6000803e3d6000fd5b505050506040513d601f19601f82011682018060405250810190610bde9190611f6e565b505b5050565b60015481565b600260003373ffffffffffffffffffffffffffffffffffffffff1673ffffffffffffffffffffffffffffffffffffffff16815260200190815260200160002060009054906101000a900460ff16610c76576040517f08c379a0000000000000000000000000000000000000000000000000000000008152600401610c6d90611a90565b60405180910390fd5b6001815111610cba576040517f08c379a0000000000000000000000000000000000000000000000000000000008152600401610cb19061200d565b60405180910390fd5b80518260ff161115610d01576040517f08c379a0000000000000000000000000000000000000000000000000000000008152600401610cf890612079565b60405180910390fd5b600160056000828254610d149190611ee5565b9250508190555081600660006101000a81548160ff021916908360ff1602179055508060079080519060200190610d4c92919061146a565b5060005b8151811015610deb5760006008600060055481526020019081526020016000206000848481518110610d8557610d84611b88565b5b602002602001015173ffffffffffffffffffffffffffffffffffffffff1673ffffffffffffffffffffffffffffffffffffffff16815260200190815260200160002060006101000a81548160ff0219169083151502179055508080600101915050610d50565b505050565b60046020528160005260406000206020528060005260406000206000915091509054906101000a900460ff1681565b60078181548110610e2f57600080fd5b906000526020600020016000915054906101000a900473ffffffffffffffffffffffffffffffffffffffff1681565b60055481565b60036020528060005260406000206000915090508060000154908060010154908060020160009054906101000a900473ffffffffffffffffffffffffffffffffffffffff16908060030160009054906101000a900473ffffffffffffffffffffffffffffffffffffffff16908060030160149054906101000a900460ff16908060040154908060050154908060060160009054906101000a900473ffffffffffffffffffffffffffffffffffffffff16905088565b60086020528160005260406000206020528060005260406000206000915091509054906101000a900460ff1681565b600073ffffffffffffffffffffffffffffffffffffffff163373ffffffffffffffffffffffffffffffffffffffff1603610fb7576040517f08c379a0000000000000000000000000000000000000000000000000000000008152600401610fae906120e5565b60405180910390fd5b600260003373ffffffffffffffffffffffffffffffffffffffff1673ffffffffffffffffffffffffffffffffffffffff16815260200190815260200160002060009054906101000a900460ff16611043576040517f08c379a000000000000000000000000000000000000000000000000000000000815260040161103a90612151565b60405180910390fd5b60008311611086576040517f08c379a000000000000000000000000000000000000000000000000000000000815260040161107d906121bd565b60405180910390fd5b600073ffffffffffffffffffffffffffffffffffffffff168273ffffffffffffffffffffffffffffffffffffffff16036110f5576040517f08c379a00000000000000000000000000000000000000000000000000000000081526004016110ec906120e5565b60405180910390fd5b600073ffffffffffffffffffffffffffffffffffffffff168173ffffffffffffffffffffffffffffffffffffffff1603611164576040517f08c379a000000000000000000000000000000000000000000000000000000000815260040161115b906120e5565b60405180910390fd5b828173ffffffffffffffffffffffffffffffffffffffff166370a08231306040518263ffffffff1660e01b815260040161119e91906118da565b602060405180830381865afa1580156111bb573d6000803e3d6000fd5b505050506040513d601f19601f820116820180604052508101906111df9190611c9c565b1015611220576040517f08c379a000000000000000000000000000000000000000000000000000000000815260040161121790611d15565b60405180910390fd5b6000600180546112309190611ee5565b90506000600360008381526020019081526020016000209050818160000181905550848160010181905550838160030160006101000a81548173ffffffffffffffffffffffffffffffffffffffff021916908373ffffffffffffffffffffffffffffffffffffffff160217905550338160020160006101000a81548173ffffffffffffffffffffffffffffffffffffffff021916908373ffffffffffffffffffffffffffffffffffffffff160217905550428160040181905550828160060160006101000a81548173ffffffffffffffffffffffffffffffffffffffff021916908373ffffffffffffffffffffffffffffffffffffffff16021790555060018160050160008282546113429190611ee5565b9250508190555080600701339080600181540180825580915050600190039060005260206000200160009091909190916101000a81548173ffffffffffffffffffffffffffffffffffffffff021916908373ffffffffffffffffffffffffffffffffffffffff1602179055506001600460003373ffffffffffffffffffffffffffffffffffffffff1673ffffffffffffffffffffffffffffffffffffffff168152602001908152602001600020600084815260200190815260200160002060006101000a81548160ff02191690831515021790555060018060008282546114299190611ee5565b925050819055505050505050565b60026020528060005260406000206000915054906101000a900460ff1681565b600660009054906101000a900460ff1681565b8280548282559060005260206000209081019282156114e3579160200282015b828111156114e25782518260006101000a81548173ffffffffffffffffffffffffffffffffffffffff021916908373ffffffffffffffffffffffffffffffffffffffff1602179055509160200191906001019061148a565b5b5090506114f091906114f4565b5090565b5b8082111561150d5760008160009055506001016114f5565b5090565b6000604051905090565b600080fd5b600080fd5b6000819050919050565b61153881611525565b811461154357600080fd5b50565b6000813590506115558161152f565b92915050565b6000602082840312156115715761157061151b565b5b600061157f84828501611546565b91505092915050565b600060ff82169050919050565b61159e81611588565b82525050565b60006020820190506115b96000830184611595565b92915050565b6115c881611588565b81146115d357600080fd5b50565b6000813590506115e5816115bf565b92915050565b6000602082840312156116015761160061151b565b5b600061160f848285016115d6565b91505092915050565b61162181611525565b82525050565b600060208201905061163c6000830184611618565b92915050565b600080fd5b6000601f19601f8301169050919050565b7f4e487b7100000000000000000000000000000000000000000000000000000000600052604160045260246000fd5b61169082611647565b810181811067ffffffffffffffff821117156116af576116ae611658565b5b80604052505050565b60006116c2611511565b90506116ce8282611687565b919050565b600067ffffffffffffffff8211156116ee576116ed611658565b5b602082029050602081019050919050565b600080fd5b600073ffffffffffffffffffffffffffffffffffffffff82169050919050565b600061172f82611704565b9050919050565b61173f81611724565b811461174a57600080fd5b50565b60008135905061175c81611736565b92915050565b6000611775611770846116d3565b6116b8565b90508083825260208201905060208402830185811115611798576117976116ff565b5b835b818110156117c157806117ad888261174d565b84526020840193505060208101905061179a565b5050509392505050565b600082601f8301126117e0576117df611642565b5b81356117f0848260208601611762565b91505092915050565b600080604083850312156118105761180f61151b565b5b600061181e858286016115d6565b925050602083013567ffffffffffffffff81111561183f5761183e611520565b5b61184b858286016117cb565b9150509250929050565b6000806040838503121561186c5761186b61151b565b5b600061187a8582860161174d565b925050602061188b85828601611546565b9150509250929050565b60008115159050919050565b6118aa81611895565b82525050565b60006020820190506118c560008301846118a1565b92915050565b6118d481611724565b82525050565b60006020820190506118ef60008301846118cb565b92915050565b60006101008201905061190b600083018b611618565b611918602083018a611618565b61192560408301896118cb565b61193260608301886118cb565b61193f60808301876118a1565b61194c60a0830186611618565b61195960c0830185611618565b61196660e08301846118cb565b9998505050505050505050565b6000806040838503121561198a5761198961151b565b5b600061199885828601611546565b92505060206119a98582860161174d565b9150509250929050565b6000806000606084860312156119cc576119cb61151b565b5b60006119da86828701611546565b93505060206119eb8682870161174d565b92505060406119fc8682870161174d565b9150509250925092565b600060208284031215611a1c57611a1b61151b565b5b6000611a2a8482850161174d565b91505092915050565b600082825260208201905092915050565b7f4e6f7420612076616c6964207369676e65720000000000000000000000000000600082015250565b6000611a7a601283611a33565b9150611a8582611a44565b602082019050919050565b60006020820190508181036000830152611aa981611a6d565b9050919050565b7f496e76616c696420757064617465207472616e73616374696f6e204944000000600082015250565b6000611ae6601d83611a33565b9150611af182611ab0565b602082019050919050565b60006020820190508181036000830152611b1581611ad9565b9050919050565b7f416c726561647920617070726f76656400000000000000000000000000000000600082015250565b6000611b52601083611a33565b9150611b5d82611b1c565b602082019050919050565b60006020820190508181036000830152611b8181611b45565b9050919050565b7f4e487b7100000000000000000000000000000000000000000000000000000000600052603260045260246000fd5b7f4e487b7100000000000000000000000000000000000000000000000000000000600052601160045260246000fd5b6000611bf182611588565b9150611bfc83611588565b9250828201905060ff811115611c1557611c14611bb7565b5b92915050565b7f696e76616c696420747820696400000000000000000000000000000000000000600082015250565b6000611c51600d83611a33565b9150611c5c82611c1b565b602082019050919050565b60006020820190508181036000830152611c8081611c44565b9050919050565b600081519050611c968161152f565b92915050565b600060208284031215611cb257611cb161151b565b5b6000611cc084828501611c87565b91505092915050565b7f696e73756666696369656e742066756e64730000000000000000000000000000600082015250565b6000611cff601283611a33565b9150611d0a82611cc9565b602082019050919050565b60006020820190508181036000830152611d2e81611cf2565b9050919050565b7f7472616e73616374696f6e20616c726561647920636f6d706c65746564000000600082015250565b6000611d6b601d83611a33565b9150611d7682611d35565b602082019050919050565b60006020820190508181036000830152611d9a81611d5e565b9050919050565b7f617070726f76616c7320616c7265616479207265616368656400000000000000600082015250565b6000611dd7601983611a33565b9150611de282611da1565b602082019050919050565b60006020820190508181036000830152611e0681611dca565b9050919050565b7f6e6f7420612076616c6964207369676e65720000000000000000000000000000600082015250565b6000611e43601283611a33565b9150611e4e82611e0d565b602082019050919050565b60006020820190508181036000830152611e7281611e36565b9050919050565b7f63616e2774207369676e20747769636500000000000000000000000000000000600082015250565b6000611eaf601083611a33565b9150611eba82611e79565b602082019050919050565b60006020820190508181036000830152611ede81611ea2565b9050919050565b6000611ef082611525565b9150611efb83611525565b9250828201905080821115611f1357611f12611bb7565b5b92915050565b6000604082019050611f2e60008301856118cb565b611f3b6020830184611618565b9392505050565b611f4b81611895565b8114611f5657600080fd5b50565b600081519050611f6881611f42565b92915050565b600060208284031215611f8457611f8361151b565b5b6000611f9284828501611f59565b91505092915050565b7f4e6577207369676e657273206d757374206265206d6f7265207468616e206f6e60008201527f6500000000000000000000000000000000000000000000000000000000000000602082015250565b6000611ff7602183611a33565b915061200282611f9b565b604082019050919050565b6000602082019050818103600083015261202681611fea565b9050919050565b7f4e65772071756f72756d20697320746f6f206869676800000000000000000000600082015250565b6000612063601683611a33565b915061206e8261202d565b602082019050919050565b6000602082019050818103600083015261209281612056565b9050919050565b7f61646472657373207a65726f20666f756e640000000000000000000000000000600082015250565b60006120cf601283611a33565b91506120da82612099565b602082019050919050565b600060208201905081810360008301526120fe816120c2565b9050919050565b7f696e76616c6964207369676e6572000000000000000000000000000000000000600082015250565b600061213b600e83611a33565b915061214682612105565b602082019050919050565b6000602082019050818103600083015261216a8161212e565b9050919050565b7f63616e27742073656e64207a65726f20616d6f756e7400000000000000000000600082015250565b60006121a7601683611a33565b91506121b282612171565b602082019050919050565b600060208201905081810360008301526121d68161219a565b905091905056fea264697066735822122032744b710860806afae01938aa29713236df6aea0d30067eaf2627abc1e8a93d64736f6c63430008180033",
  "linkReferences": {},
  "deployedLinkReferences": {}
}